{
  "_format": "hh-sol-artifact-1",
  "contractName": "MarketToken",
  "sourceName": "contracts/Market.sol",
  "abi": [
    {
      "inputs": [],
      "stateMutability": "nonpayable",
      "type": "constructor"
    },
    {
      "anonymous": false,
      "inputs": [
        {
          "indexed": true,
          "internalType": "address",
          "name": "owner",
          "type": "address"
        },
        {
          "indexed": true,
          "internalType": "address",
          "name": "approved",
          "type": "address"
        },
        {
          "indexed": true,
          "internalType": "uint256",
          "name": "tokenId",
          "type": "uint256"
        }
      ],
      "name": "Approval",
      "type": "event"
    },
    {
      "anonymous": false,
      "inputs": [
        {
          "indexed": true,
          "internalType": "address",
          "name": "owner",
          "type": "address"
        },
        {
          "indexed": true,
          "internalType": "address",
          "name": "operator",
          "type": "address"
        },
        {
          "indexed": false,
          "internalType": "bool",
          "name": "approved",
          "type": "bool"
        }
      ],
      "name": "ApprovalForAll",
      "type": "event"
    },
    {
      "anonymous": false,
      "inputs": [
        {
          "indexed": false,
          "internalType": "uint256",
          "name": "tokenId",
          "type": "uint256"
        },
        {
          "indexed": false,
          "internalType": "address payable",
          "name": "seller",
          "type": "address"
        },
        {
          "indexed": false,
          "internalType": "address payable",
          "name": "owner",
          "type": "address"
        },
        {
          "indexed": false,
          "internalType": "uint256",
          "name": "price",
          "type": "uint256"
        },
        {
          "indexed": false,
          "internalType": "bool",
          "name": "sold",
          "type": "bool"
        }
      ],
      "name": "MarketItemCreated",
      "type": "event"
    },
    {
      "anonymous": false,
      "inputs": [
        {
          "indexed": true,
          "internalType": "address",
          "name": "from",
          "type": "address"
        },
        {
          "indexed": true,
          "internalType": "address",
          "name": "to",
          "type": "address"
        },
        {
          "indexed": true,
          "internalType": "uint256",
          "name": "tokenId",
          "type": "uint256"
        }
      ],
      "name": "Transfer",
      "type": "event"
    },
    {
      "inputs": [
        {
          "internalType": "address",
          "name": "to",
          "type": "address"
        },
        {
          "internalType": "uint256",
          "name": "tokenId",
          "type": "uint256"
        }
      ],
      "name": "approve",
      "outputs": [],
      "stateMutability": "nonpayable",
      "type": "function"
    },
    {
      "inputs": [
        {
          "internalType": "address",
          "name": "owner",
          "type": "address"
        }
      ],
      "name": "balanceOf",
      "outputs": [
        {
          "internalType": "uint256",
          "name": "",
          "type": "uint256"
        }
      ],
      "stateMutability": "view",
      "type": "function"
    },
    {
      "inputs": [
        {
          "internalType": "uint256",
          "name": "id",
          "type": "uint256"
        }
      ],
      "name": "buyNFT",
      "outputs": [],
      "stateMutability": "payable",
      "type": "function"
    },
    {
      "inputs": [
        {
          "internalType": "uint256",
          "name": "id",
          "type": "uint256"
        }
      ],
      "name": "cancelToken",
      "outputs": [],
      "stateMutability": "nonpayable",
      "type": "function"
    },
    {
      "inputs": [
        {
          "internalType": "string",
          "name": "tokenURI",
          "type": "string"
        },
        {
          "internalType": "uint256",
          "name": "price",
          "type": "uint256"
        }
      ],
      "name": "createToken",
      "outputs": [
        {
          "internalType": "uint256",
          "name": "",
          "type": "uint256"
        }
      ],
      "stateMutability": "payable",
      "type": "function"
    },
    {
      "inputs": [],
      "name": "fetchMarketItems",
      "outputs": [
        {
          "components": [
            {
              "internalType": "uint256",
              "name": "tokenId",
              "type": "uint256"
            },
            {
              "internalType": "address payable",
              "name": "seller",
              "type": "address"
            },
            {
              "internalType": "address payable",
              "name": "owner",
              "type": "address"
            },
            {
              "internalType": "uint256",
              "name": "price",
              "type": "uint256"
            },
            {
              "internalType": "bool",
              "name": "sold",
              "type": "bool"
            }
          ],
          "internalType": "struct MarketToken.MarketItem[]",
          "name": "",
          "type": "tuple[]"
        }
      ],
      "stateMutability": "view",
      "type": "function"
    },
    {
      "inputs": [],
      "name": "fetchMyNFT",
      "outputs": [
        {
          "components": [
            {
              "internalType": "uint256",
              "name": "tokenId",
              "type": "uint256"
            },
            {
              "internalType": "address payable",
              "name": "seller",
              "type": "address"
            },
            {
              "internalType": "address payable",
              "name": "owner",
              "type": "address"
            },
            {
              "internalType": "uint256",
              "name": "price",
              "type": "uint256"
            },
            {
              "internalType": "bool",
              "name": "sold",
              "type": "bool"
            }
          ],
          "internalType": "struct MarketToken.MarketItem[]",
          "name": "",
          "type": "tuple[]"
        }
      ],
      "stateMutability": "view",
      "type": "function"
    },
    {
      "inputs": [
        {
          "internalType": "uint256",
          "name": "tokenId",
          "type": "uint256"
        }
      ],
      "name": "getApproved",
      "outputs": [
        {
          "internalType": "address",
          "name": "",
          "type": "address"
        }
      ],
      "stateMutability": "view",
      "type": "function"
    },
    {
      "inputs": [
        {
          "internalType": "address",
          "name": "owner",
          "type": "address"
        },
        {
          "internalType": "address",
          "name": "operator",
          "type": "address"
        }
      ],
      "name": "isApprovedForAll",
      "outputs": [
        {
          "internalType": "bool",
          "name": "",
          "type": "bool"
        }
      ],
      "stateMutability": "view",
      "type": "function"
    },
    {
      "inputs": [],
      "name": "listingPrice",
      "outputs": [
        {
          "internalType": "uint256",
          "name": "",
          "type": "uint256"
        }
      ],
      "stateMutability": "view",
      "type": "function"
    },
    {
      "inputs": [],
      "name": "name",
      "outputs": [
        {
          "internalType": "string",
          "name": "",
          "type": "string"
        }
      ],
      "stateMutability": "view",
      "type": "function"
    },
    {
      "inputs": [
        {
          "internalType": "uint256",
          "name": "tokenId",
          "type": "uint256"
        }
      ],
      "name": "ownerOf",
      "outputs": [
        {
          "internalType": "address",
          "name": "",
          "type": "address"
        }
      ],
      "stateMutability": "view",
      "type": "function"
    },
    {
      "inputs": [
        {
          "internalType": "uint256",
          "name": "id",
          "type": "uint256"
        },
        {
          "internalType": "uint256",
          "name": "price",
          "type": "uint256"
        }
      ],
      "name": "resell",
      "outputs": [],
      "stateMutability": "payable",
      "type": "function"
    },
    {
      "inputs": [
        {
          "internalType": "address",
          "name": "from",
          "type": "address"
        },
        {
          "internalType": "address",
          "name": "to",
          "type": "address"
        },
        {
          "internalType": "uint256",
          "name": "tokenId",
          "type": "uint256"
        }
      ],
      "name": "safeTransferFrom",
      "outputs": [],
      "stateMutability": "nonpayable",
      "type": "function"
    },
    {
      "inputs": [
        {
          "internalType": "address",
          "name": "from",
          "type": "address"
        },
        {
          "internalType": "address",
          "name": "to",
          "type": "address"
        },
        {
          "internalType": "uint256",
          "name": "tokenId",
          "type": "uint256"
        },
        {
          "internalType": "bytes",
          "name": "data",
          "type": "bytes"
        }
      ],
      "name": "safeTransferFrom",
      "outputs": [],
      "stateMutability": "nonpayable",
      "type": "function"
    },
    {
      "inputs": [
        {
          "internalType": "address",
          "name": "operator",
          "type": "address"
        },
        {
          "internalType": "bool",
          "name": "approved",
          "type": "bool"
        }
      ],
      "name": "setApprovalForAll",
      "outputs": [],
      "stateMutability": "nonpayable",
      "type": "function"
    },
    {
      "inputs": [
        {
          "internalType": "uint256",
          "name": "price",
          "type": "uint256"
        }
      ],
      "name": "setListingPrice",
      "outputs": [],
      "stateMutability": "nonpayable",
      "type": "function"
    },
    {
      "inputs": [
        {
          "internalType": "bytes4",
          "name": "interfaceId",
          "type": "bytes4"
        }
      ],
      "name": "supportsInterface",
      "outputs": [
        {
          "internalType": "bool",
          "name": "",
          "type": "bool"
        }
      ],
      "stateMutability": "view",
      "type": "function"
    },
    {
      "inputs": [],
      "name": "symbol",
      "outputs": [
        {
          "internalType": "string",
          "name": "",
          "type": "string"
        }
      ],
      "stateMutability": "view",
      "type": "function"
    },
    {
      "inputs": [
        {
          "internalType": "uint256",
          "name": "tokenId",
          "type": "uint256"
        }
      ],
      "name": "tokenURI",
      "outputs": [
        {
          "internalType": "string",
          "name": "",
          "type": "string"
        }
      ],
      "stateMutability": "view",
      "type": "function"
    },
    {
      "inputs": [
        {
          "internalType": "address",
          "name": "from",
          "type": "address"
        },
        {
          "internalType": "address",
          "name": "to",
          "type": "address"
        },
        {
          "internalType": "uint256",
          "name": "tokenId",
          "type": "uint256"
        }
      ],
      "name": "transferFrom",
      "outputs": [],
      "stateMutability": "nonpayable",
      "type": "function"
    }
  ],
  "bytecode": "0x6080604052655af3107a40006009553480156200001b57600080fd5b506040518060400160405280600b81526020017f48654c6c6f20546f6b656e0000000000000000000000000000000000000000008152506040518060400160405280600381526020017f48546b000000000000000000000000000000000000000000000000000000000081525081600090816200009991906200036f565b508060019081620000ab91906200036f565b50505033600a60006101000a81548173ffffffffffffffffffffffffffffffffffffffff021916908373ffffffffffffffffffffffffffffffffffffffff16021790555062000456565b600081519050919050565b7f4e487b7100000000000000000000000000000000000000000000000000000000600052604160045260246000fd5b7f4e487b7100000000000000000000000000000000000000000000000000000000600052602260045260246000fd5b600060028204905060018216806200017757607f821691505b6020821081036200018d576200018c6200012f565b5b50919050565b60008190508160005260206000209050919050565b60006020601f8301049050919050565b600082821b905092915050565b600060088302620001f77fffffffffffffffffffffffffffffffffffffffffffffffffffffffffffffffff82620001b8565b620002038683620001b8565b95508019841693508086168417925050509392505050565b6000819050919050565b6000819050919050565b6000620002506200024a62000244846200021b565b62000225565b6200021b565b9050919050565b6000819050919050565b6200026c836200022f565b620002846200027b8262000257565b848454620001c5565b825550505050565b600090565b6200029b6200028c565b620002a881848462000261565b505050565b5b81811015620002d057620002c460008262000291565b600181019050620002ae565b5050565b601f8211156200031f57620002e98162000193565b620002f484620001a8565b8101602085101562000304578190505b6200031c6200031385620001a8565b830182620002ad565b50505b505050565b600082821c905092915050565b6000620003446000198460080262000324565b1980831691505092915050565b60006200035f838362000331565b9150826002028217905092915050565b6200037a82620000f5565b67ffffffffffffffff81111562000396576200039562000100565b5b620003a282546200015e565b620003af828285620002d4565b600060209050601f831160018114620003e75760008415620003d2578287015190505b620003de858262000351565b8655506200044e565b601f198416620003f78662000193565b60005b828110156200042157848901518255600182019150602085019450602081019050620003fa565b868310156200044157848901516200043d601f89168262000331565b8355505b6001600288020188555050505b505050505050565b613d3580620004666000396000f3fe60806040526004361061012a5760003560e01c80636352211e116100ab578063a22cb4651161006f578063a22cb465146103d9578063b88d4fde14610402578063c18763f71461042b578063c78f19f914610456578063c87b56dd14610481578063e985e9c5146104be5761012a565b80636352211e146102db57806370a082311461031857806372b3b620146103555780637c726b691461038557806395d89b41146103ae5761012a565b806323b872dd116100f257806323b872dd1461022857806328cfac8a14610251578063382faa6a1461026d57806342842e0e1461029657806351ed8288146102bf5761012a565b806301ffc9a71461012f57806306fdde031461016c578063081812fc14610197578063095ea7b3146101d45780630f08efe0146101fd575b600080fd5b34801561013b57600080fd5b5061015660048036038101906101519190612890565b6104fb565b60405161016391906128d8565b60405180910390f35b34801561017857600080fd5b506101816105dd565b60405161018e9190612983565b60405180910390f35b3480156101a357600080fd5b506101be60048036038101906101b991906129db565b61066f565b6040516101cb9190612a49565b60405180910390f35b3480156101e057600080fd5b506101fb60048036038101906101f69190612a90565b6106b5565b005b34801561020957600080fd5b506102126107cc565b60405161021f9190612c26565b60405180910390f35b34801561023457600080fd5b5061024f600480360381019061024a9190612c48565b6109db565b005b61026b60048036038101906102669190612c9b565b610a3b565b005b34801561027957600080fd5b50610294600480360381019061028f91906129db565b610c3a565b005b3480156102a257600080fd5b506102bd60048036038101906102b89190612c48565b610dce565b005b6102d960048036038101906102d491906129db565b610dee565b005b3480156102e757600080fd5b5061030260048036038101906102fd91906129db565b610fa1565b60405161030f9190612a49565b60405180910390f35b34801561032457600080fd5b5061033f600480360381019061033a9190612cdb565b611027565b60405161034c9190612d17565b60405180910390f35b61036f600480360381019061036a9190612e67565b6110de565b60405161037c9190612d17565b60405180910390f35b34801561039157600080fd5b506103ac60048036038101906103a791906129db565b611199565b005b3480156103ba57600080fd5b506103c36111fd565b6040516103d09190612983565b60405180910390f35b3480156103e557600080fd5b5061040060048036038101906103fb9190612eef565b61128f565b005b34801561040e57600080fd5b5061042960048036038101906104249190612fd0565b6112a5565b005b34801561043757600080fd5b50610440611307565b60405161044d9190612c26565b60405180910390f35b34801561046257600080fd5b5061046b6115e7565b6040516104789190612d17565b60405180910390f35b34801561048d57600080fd5b506104a860048036038101906104a391906129db565b6115ed565b6040516104b59190612983565b60405180910390f35b3480156104ca57600080fd5b506104e560048036038101906104e09190613053565b6116ff565b6040516104f291906128d8565b60405180910390f35b60007f80ac58cd000000000000000000000000000000000000000000000000000000007bffffffffffffffffffffffffffffffffffffffffffffffffffffffff1916827bffffffffffffffffffffffffffffffffffffffffffffffffffffffff191614806105c657507f5b5e139f000000000000000000000000000000000000000000000000000000007bffffffffffffffffffffffffffffffffffffffffffffffffffffffff1916827bffffffffffffffffffffffffffffffffffffffffffffffffffffffff1916145b806105d657506105d582611793565b5b9050919050565b6060600080546105ec906130c2565b80601f0160208091040260200160405190810160405280929190818152602001828054610618906130c2565b80156106655780601f1061063a57610100808354040283529160200191610665565b820191906000526020600020905b81548152906001019060200180831161064857829003601f168201915b5050505050905090565b600061067a826117fd565b6004600083815260200190815260200160002060009054906101000a900473ffffffffffffffffffffffffffffffffffffffff169050919050565b60006106c082610fa1565b90508073ffffffffffffffffffffffffffffffffffffffff168373ffffffffffffffffffffffffffffffffffffffff1603610730576040517f08c379a000000000000000000000000000000000000000000000000000000000815260040161072790613165565b60405180910390fd5b8073ffffffffffffffffffffffffffffffffffffffff1661074f611848565b73ffffffffffffffffffffffffffffffffffffffff16148061077e575061077d81610778611848565b6116ff565b5b6107bd576040517f08c379a00000000000000000000000000000000000000000000000000000000081526004016107b4906131f7565b60405180910390fd5b6107c78383611850565b505050565b606060006107da6007611909565b905060006107e86008611909565b826107f39190613246565b905060008167ffffffffffffffff81111561081157610810612d3c565b5b60405190808252806020026020018201604052801561084a57816020015b6108376127c7565b81526020019060019003908161082f5790505b5090506000805b848110156109d057600b600060018361086a919061327a565b815260200190815260200160002060040160009054906101000a900460ff166109bd57600b600060018361089e919061327a565b81526020019081526020016000206040518060a0016040529081600082015481526020016001820160009054906101000a900473ffffffffffffffffffffffffffffffffffffffff1673ffffffffffffffffffffffffffffffffffffffff1673ffffffffffffffffffffffffffffffffffffffff1681526020016002820160009054906101000a900473ffffffffffffffffffffffffffffffffffffffff1673ffffffffffffffffffffffffffffffffffffffff1673ffffffffffffffffffffffffffffffffffffffff168152602001600382015481526020016004820160009054906101000a900460ff16151515158152505083838061099e906132ae565b9450815181106109b1576109b06132f6565b5b60200260200101819052505b80806109c8906132ae565b915050610851565b508194505050505090565b6109ec6109e6611848565b82611917565b610a2b576040517f08c379a0000000000000000000000000000000000000000000000000000000008152600401610a2290613397565b60405180910390fd5b610a368383836119ac565b505050565b3373ffffffffffffffffffffffffffffffffffffffff16600b600084815260200190815260200160002060020160009054906101000a900473ffffffffffffffffffffffffffffffffffffffff1673ffffffffffffffffffffffffffffffffffffffff1614610aa957600080fd5b6009543414610ab757600080fd5b60008111610ac457600080fd5b30600b600084815260200190815260200160002060020160006101000a81548173ffffffffffffffffffffffffffffffffffffffff021916908373ffffffffffffffffffffffffffffffffffffffff16021790555033600b600084815260200190815260200160002060010160006101000a81548173ffffffffffffffffffffffffffffffffffffffff021916908373ffffffffffffffffffffffffffffffffffffffff16021790555080600b6000848152602001908152602001600020600301819055506000600b600084815260200190815260200160002060040160006101000a81548160ff021916908315150217905550600a60009054906101000a900473ffffffffffffffffffffffffffffffffffffffff1673ffffffffffffffffffffffffffffffffffffffff166108fc349081150290604051600060405180830381858888f19350505050158015610c20573d6000803e3d6000fd5b50610c2b6008611ca5565b610c363330846119ac565b5050565b600b600082815260200190815260200160002060010160009054906101000a900473ffffffffffffffffffffffffffffffffffffffff1673ffffffffffffffffffffffffffffffffffffffff163373ffffffffffffffffffffffffffffffffffffffff1614610ca857600080fd5b60001515600b600083815260200190815260200160002060040160009054906101000a900460ff16151514610cdc57600080fd5b33600b600083815260200190815260200160002060020160006101000a81548173ffffffffffffffffffffffffffffffffffffffff021916908373ffffffffffffffffffffffffffffffffffffffff1602179055506000600b600083815260200190815260200160002060010160006101000a81548173ffffffffffffffffffffffffffffffffffffffff021916908373ffffffffffffffffffffffffffffffffffffffff1602179055506001600b600083815260200190815260200160002060040160006101000a81548160ff021916908315150217905550610dc06008611d01565b610dcb3033836119ac565b50565b610de9838383604051806020016040528060008152506112a5565b505050565b610df86007611909565b811115610e0457600080fd5b6000600b60008381526020019081526020016000206003015490506000600b600084815260200190815260200160002060010160009054906101000a900473ffffffffffffffffffffffffffffffffffffffff169050348214610e6657600080fd5b33600b600085815260200190815260200160002060020160006101000a81548173ffffffffffffffffffffffffffffffffffffffff021916908373ffffffffffffffffffffffffffffffffffffffff1602179055506000600b600085815260200190815260200160002060010160006101000a81548173ffffffffffffffffffffffffffffffffffffffff021916908373ffffffffffffffffffffffffffffffffffffffff1602179055506001600b600085815260200190815260200160002060040160006101000a81548160ff021916908315150217905550610f4a6008611d01565b610f553033856119ac565b8073ffffffffffffffffffffffffffffffffffffffff166108fc839081150290604051600060405180830381858888f19350505050158015610f9b573d6000803e3d6000fd5b50505050565b600080610fad83611d17565b9050600073ffffffffffffffffffffffffffffffffffffffff168173ffffffffffffffffffffffffffffffffffffffff160361101e576040517f08c379a000000000000000000000000000000000000000000000000000000000815260040161101590613403565b60405180910390fd5b80915050919050565b60008073ffffffffffffffffffffffffffffffffffffffff168273ffffffffffffffffffffffffffffffffffffffff1603611097576040517f08c379a000000000000000000000000000000000000000000000000000000000815260040161108e90613495565b60405180910390fd5b600360008373ffffffffffffffffffffffffffffffffffffffff1673ffffffffffffffffffffffffffffffffffffffff168152602001908152602001600020549050919050565b600060095434146110ee57600080fd5b6110f86007611d01565b60006111046007611909565b90506111103382611d54565b61111a8185611f71565b6111248184611fde565b600a60009054906101000a900473ffffffffffffffffffffffffffffffffffffffff1673ffffffffffffffffffffffffffffffffffffffff166108fc6009549081150290604051600060405180830381858888f1935050505015801561118e573d6000803e3d6000fd5b508091505092915050565b600a60009054906101000a900473ffffffffffffffffffffffffffffffffffffffff1673ffffffffffffffffffffffffffffffffffffffff163373ffffffffffffffffffffffffffffffffffffffff16146111f357600080fd5b8060098190555050565b60606001805461120c906130c2565b80601f0160208091040260200160405190810160405280929190818152602001828054611238906130c2565b80156112855780601f1061125a57610100808354040283529160200191611285565b820191906000526020600020905b81548152906001019060200180831161126857829003601f168201915b5050505050905090565b6112a161129a611848565b8383612168565b5050565b6112b66112b0611848565b83611917565b6112f5576040517f08c379a00000000000000000000000000000000000000000000000000000000081526004016112ec90613397565b60405180910390fd5b611301848484846122d4565b50505050565b6060600080600090505b61131b6007611909565b8110156113b7573373ffffffffffffffffffffffffffffffffffffffff16600b600060018461134a919061327a565b815260200190815260200160002060010160009054906101000a900473ffffffffffffffffffffffffffffffffffffffff1673ffffffffffffffffffffffffffffffffffffffff16036113a457816113a1906132ae565b91505b80806113af906132ae565b915050611311565b5060008167ffffffffffffffff8111156113d4576113d3612d3c565b5b60405190808252806020026020018201604052801561140d57816020015b6113fa6127c7565b8152602001906001900390816113f25790505b5090506000805b61141e6007611909565b8110156115dd573373ffffffffffffffffffffffffffffffffffffffff16600b600060018461144d919061327a565b815260200190815260200160002060010160009054906101000a900473ffffffffffffffffffffffffffffffffffffffff1673ffffffffffffffffffffffffffffffffffffffff16036115ca57600b60006001836114ab919061327a565b81526020019081526020016000206040518060a0016040529081600082015481526020016001820160009054906101000a900473ffffffffffffffffffffffffffffffffffffffff1673ffffffffffffffffffffffffffffffffffffffff1673ffffffffffffffffffffffffffffffffffffffff1681526020016002820160009054906101000a900473ffffffffffffffffffffffffffffffffffffffff1673ffffffffffffffffffffffffffffffffffffffff1673ffffffffffffffffffffffffffffffffffffffff168152602001600382015481526020016004820160009054906101000a900460ff1615151515815250508383806115ab906132ae565b9450815181106115be576115bd6132f6565b5b60200260200101819052505b80806115d5906132ae565b915050611414565b5081935050505090565b60095481565b60606115f8826117fd565b6000600660008481526020019081526020016000208054611618906130c2565b80601f0160208091040260200160405190810160405280929190818152602001828054611644906130c2565b80156116915780601f1061166657610100808354040283529160200191611691565b820191906000526020600020905b81548152906001019060200180831161167457829003601f168201915b5050505050905060006116a2612330565b905060008151036116b75781925050506116fa565b6000825111156116ec5780826040516020016116d49291906134f1565b604051602081830303815290604052925050506116fa565b6116f584612347565b925050505b919050565b6000600560008473ffffffffffffffffffffffffffffffffffffffff1673ffffffffffffffffffffffffffffffffffffffff16815260200190815260200160002060008373ffffffffffffffffffffffffffffffffffffffff1673ffffffffffffffffffffffffffffffffffffffff16815260200190815260200160002060009054906101000a900460ff16905092915050565b60007f01ffc9a7000000000000000000000000000000000000000000000000000000007bffffffffffffffffffffffffffffffffffffffffffffffffffffffff1916827bffffffffffffffffffffffffffffffffffffffffffffffffffffffff1916149050919050565b611806816123af565b611845576040517f08c379a000000000000000000000000000000000000000000000000000000000815260040161183c90613403565b60405180910390fd5b50565b600033905090565b816004600083815260200190815260200160002060006101000a81548173ffffffffffffffffffffffffffffffffffffffff021916908373ffffffffffffffffffffffffffffffffffffffff160217905550808273ffffffffffffffffffffffffffffffffffffffff166118c383610fa1565b73ffffffffffffffffffffffffffffffffffffffff167f8c5be1e5ebec7d5bd14f71427d1e84f3dd0314c0f7b2291e5b200ac8c7c3b92560405160405180910390a45050565b600081600001549050919050565b60008061192383610fa1565b90508073ffffffffffffffffffffffffffffffffffffffff168473ffffffffffffffffffffffffffffffffffffffff161480611965575061196481856116ff565b5b806119a357508373ffffffffffffffffffffffffffffffffffffffff1661198b8461066f565b73ffffffffffffffffffffffffffffffffffffffff16145b91505092915050565b8273ffffffffffffffffffffffffffffffffffffffff166119cc82610fa1565b73ffffffffffffffffffffffffffffffffffffffff1614611a22576040517f08c379a0000000000000000000000000000000000000000000000000000000008152600401611a1990613587565b60405180910390fd5b600073ffffffffffffffffffffffffffffffffffffffff168273ffffffffffffffffffffffffffffffffffffffff1603611a91576040517f08c379a0000000000000000000000000000000000000000000000000000000008152600401611a8890613619565b60405180910390fd5b611a9e83838360016123f0565b8273ffffffffffffffffffffffffffffffffffffffff16611abe82610fa1565b73ffffffffffffffffffffffffffffffffffffffff1614611b14576040517f08c379a0000000000000000000000000000000000000000000000000000000008152600401611b0b90613587565b60405180910390fd5b6004600082815260200190815260200160002060006101000a81549073ffffffffffffffffffffffffffffffffffffffff02191690556001600360008573ffffffffffffffffffffffffffffffffffffffff1673ffffffffffffffffffffffffffffffffffffffff168152602001908152602001600020600082825403925050819055506001600360008473ffffffffffffffffffffffffffffffffffffffff1673ffffffffffffffffffffffffffffffffffffffff16815260200190815260200160002060008282540192505081905550816002600083815260200190815260200160002060006101000a81548173ffffffffffffffffffffffffffffffffffffffff021916908373ffffffffffffffffffffffffffffffffffffffff160217905550808273ffffffffffffffffffffffffffffffffffffffff168473ffffffffffffffffffffffffffffffffffffffff167fddf252ad1be2c89b69c2b068fc378daa952ba7f163c4a11628f55a4df523b3ef60405160405180910390a4611ca083838360016123f6565b505050565b60008160000154905060008111611cf1576040517f08c379a0000000000000000000000000000000000000000000000000000000008152600401611ce890613685565b60405180910390fd5b6001810382600001819055505050565b6001816000016000828254019250508190555050565b60006002600083815260200190815260200160002060009054906101000a900473ffffffffffffffffffffffffffffffffffffffff169050919050565b600073ffffffffffffffffffffffffffffffffffffffff168273ffffffffffffffffffffffffffffffffffffffff1603611dc3576040517f08c379a0000000000000000000000000000000000000000000000000000000008152600401611dba906136f1565b60405180910390fd5b611dcc816123af565b15611e0c576040517f08c379a0000000000000000000000000000000000000000000000000000000008152600401611e039061375d565b60405180910390fd5b611e1a6000838360016123f0565b611e23816123af565b15611e63576040517f08c379a0000000000000000000000000000000000000000000000000000000008152600401611e5a9061375d565b60405180910390fd5b6001600360008473ffffffffffffffffffffffffffffffffffffffff1673ffffffffffffffffffffffffffffffffffffffff16815260200190815260200160002060008282540192505081905550816002600083815260200190815260200160002060006101000a81548173ffffffffffffffffffffffffffffffffffffffff021916908373ffffffffffffffffffffffffffffffffffffffff160217905550808273ffffffffffffffffffffffffffffffffffffffff16600073ffffffffffffffffffffffffffffffffffffffff167fddf252ad1be2c89b69c2b068fc378daa952ba7f163c4a11628f55a4df523b3ef60405160405180910390a4611f6d6000838360016123f6565b5050565b611f7a826123af565b611fb9576040517f08c379a0000000000000000000000000000000000000000000000000000000008152600401611fb0906137ef565b60405180910390fd5b80600660008481526020019081526020016000209081611fd991906139bb565b505050565b60008111611feb57600080fd5b6040518060a001604052808381526020013373ffffffffffffffffffffffffffffffffffffffff1681526020013073ffffffffffffffffffffffffffffffffffffffff16815260200182815260200160001515815250600b60008481526020019081526020016000206000820151816000015560208201518160010160006101000a81548173ffffffffffffffffffffffffffffffffffffffff021916908373ffffffffffffffffffffffffffffffffffffffff16021790555060408201518160020160006101000a81548173ffffffffffffffffffffffffffffffffffffffff021916908373ffffffffffffffffffffffffffffffffffffffff1602179055506060820151816003015560808201518160040160006101000a81548160ff0219169083151502179055509050506121243330846119ac565b7fb640004f1d14576d0c209e240cad0410e0d8c0c33a09375861fbadae2588a98d82303384600060405161215c959493929190613a9c565b60405180910390a15050565b8173ffffffffffffffffffffffffffffffffffffffff168373ffffffffffffffffffffffffffffffffffffffff16036121d6576040517f08c379a00000000000000000000000000000000000000000000000000000000081526004016121cd90613b3b565b60405180910390fd5b80600560008573ffffffffffffffffffffffffffffffffffffffff1673ffffffffffffffffffffffffffffffffffffffff16815260200190815260200160002060008473ffffffffffffffffffffffffffffffffffffffff1673ffffffffffffffffffffffffffffffffffffffff16815260200190815260200160002060006101000a81548160ff0219169083151502179055508173ffffffffffffffffffffffffffffffffffffffff168373ffffffffffffffffffffffffffffffffffffffff167f17307eab39ab6107e8899845ad3d59bd9653f200f220920489ca2b5937696c31836040516122c791906128d8565b60405180910390a3505050565b6122df8484846119ac565b6122eb848484846123fc565b61232a576040517f08c379a000000000000000000000000000000000000000000000000000000000815260040161232190613bcd565b60405180910390fd5b50505050565b606060405180602001604052806000815250905090565b6060612352826117fd565b600061235c612330565b9050600081511161237c57604051806020016040528060008152506123a7565b8061238684612583565b6040516020016123979291906134f1565b6040516020818303038152906040525b915050919050565b60008073ffffffffffffffffffffffffffffffffffffffff166123d183611d17565b73ffffffffffffffffffffffffffffffffffffffff1614159050919050565b50505050565b50505050565b600061241d8473ffffffffffffffffffffffffffffffffffffffff16612651565b15612576578373ffffffffffffffffffffffffffffffffffffffff1663150b7a02612446611848565b8786866040518563ffffffff1660e01b81526004016124689493929190613c42565b6020604051808303816000875af19250505080156124a457506040513d601f19601f820116820180604052508101906124a19190613ca3565b60015b612526573d80600081146124d4576040519150601f19603f3d011682016040523d82523d6000602084013e6124d9565b606091505b50600081510361251e576040517f08c379a000000000000000000000000000000000000000000000000000000000815260040161251590613bcd565b60405180910390fd5b805181602001fd5b63150b7a0260e01b7bffffffffffffffffffffffffffffffffffffffffffffffffffffffff1916817bffffffffffffffffffffffffffffffffffffffffffffffffffffffff19161491505061257b565b600190505b949350505050565b60606000600161259284612674565b01905060008167ffffffffffffffff8111156125b1576125b0612d3c565b5b6040519080825280601f01601f1916602001820160405280156125e35781602001600182028036833780820191505090505b509050600082602001820190505b600115612646578080600190039150507f3031323334353637383961626364656600000000000000000000000000000000600a86061a8153600a858161263a57612639613cd0565b5b049450600085036125f1575b819350505050919050565b6000808273ffffffffffffffffffffffffffffffffffffffff163b119050919050565b600080600090507a184f03e93ff9f4daa797ed6e38ed64bf6a1f01000000000000000083106126d2577a184f03e93ff9f4daa797ed6e38ed64bf6a1f01000000000000000083816126c8576126c7613cd0565b5b0492506040810190505b6d04ee2d6d415b85acef8100000000831061270f576d04ee2d6d415b85acef8100000000838161270557612704613cd0565b5b0492506020810190505b662386f26fc10000831061273e57662386f26fc10000838161273457612733613cd0565b5b0492506010810190505b6305f5e1008310612767576305f5e100838161275d5761275c613cd0565b5b0492506008810190505b612710831061278c57612710838161278257612781613cd0565b5b0492506004810190505b606483106127af57606483816127a5576127a4613cd0565b5b0492506002810190505b600a83106127be576001810190505b80915050919050565b6040518060a0016040528060008152602001600073ffffffffffffffffffffffffffffffffffffffff168152602001600073ffffffffffffffffffffffffffffffffffffffff168152602001600081526020016000151581525090565b6000604051905090565b600080fd5b600080fd5b60007fffffffff0000000000000000000000000000000000000000000000000000000082169050919050565b61286d81612838565b811461287857600080fd5b50565b60008135905061288a81612864565b92915050565b6000602082840312156128a6576128a561282e565b5b60006128b48482850161287b565b91505092915050565b60008115159050919050565b6128d2816128bd565b82525050565b60006020820190506128ed60008301846128c9565b92915050565b600081519050919050565b600082825260208201905092915050565b60005b8381101561292d578082015181840152602081019050612912565b60008484015250505050565b6000601f19601f8301169050919050565b6000612955826128f3565b61295f81856128fe565b935061296f81856020860161290f565b61297881612939565b840191505092915050565b6000602082019050818103600083015261299d818461294a565b905092915050565b6000819050919050565b6129b8816129a5565b81146129c357600080fd5b50565b6000813590506129d5816129af565b92915050565b6000602082840312156129f1576129f061282e565b5b60006129ff848285016129c6565b91505092915050565b600073ffffffffffffffffffffffffffffffffffffffff82169050919050565b6000612a3382612a08565b9050919050565b612a4381612a28565b82525050565b6000602082019050612a5e6000830184612a3a565b92915050565b612a6d81612a28565b8114612a7857600080fd5b50565b600081359050612a8a81612a64565b92915050565b60008060408385031215612aa757612aa661282e565b5b6000612ab585828601612a7b565b9250506020612ac6858286016129c6565b9150509250929050565b600081519050919050565b600082825260208201905092915050565b6000819050602082019050919050565b612b05816129a5565b82525050565b6000612b1682612a08565b9050919050565b612b2681612b0b565b82525050565b612b35816128bd565b82525050565b60a082016000820151612b516000850182612afc565b506020820151612b646020850182612b1d565b506040820151612b776040850182612b1d565b506060820151612b8a6060850182612afc565b506080820151612b9d6080850182612b2c565b50505050565b6000612baf8383612b3b565b60a08301905092915050565b6000602082019050919050565b6000612bd382612ad0565b612bdd8185612adb565b9350612be883612aec565b8060005b83811015612c19578151612c008882612ba3565b9750612c0b83612bbb565b925050600181019050612bec565b5085935050505092915050565b60006020820190508181036000830152612c408184612bc8565b905092915050565b600080600060608486031215612c6157612c6061282e565b5b6000612c6f86828701612a7b565b9350506020612c8086828701612a7b565b9250506040612c91868287016129c6565b9150509250925092565b60008060408385031215612cb257612cb161282e565b5b6000612cc0858286016129c6565b9250506020612cd1858286016129c6565b9150509250929050565b600060208284031215612cf157612cf061282e565b5b6000612cff84828501612a7b565b91505092915050565b612d11816129a5565b82525050565b6000602082019050612d2c6000830184612d08565b92915050565b600080fd5b600080fd5b7f4e487b7100000000000000000000000000000000000000000000000000000000600052604160045260246000fd5b612d7482612939565b810181811067ffffffffffffffff82111715612d9357612d92612d3c565b5b80604052505050565b6000612da6612824565b9050612db28282612d6b565b919050565b600067ffffffffffffffff821115612dd257612dd1612d3c565b5b612ddb82612939565b9050602081019050919050565b82818337600083830152505050565b6000612e0a612e0584612db7565b612d9c565b905082815260208101848484011115612e2657612e25612d37565b5b612e31848285612de8565b509392505050565b600082601f830112612e4e57612e4d612d32565b5b8135612e5e848260208601612df7565b91505092915050565b60008060408385031215612e7e57612e7d61282e565b5b600083013567ffffffffffffffff811115612e9c57612e9b612833565b5b612ea885828601612e39565b9250506020612eb9858286016129c6565b9150509250929050565b612ecc816128bd565b8114612ed757600080fd5b50565b600081359050612ee981612ec3565b92915050565b60008060408385031215612f0657612f0561282e565b5b6000612f1485828601612a7b565b9250506020612f2585828601612eda565b9150509250929050565b600067ffffffffffffffff821115612f4a57612f49612d3c565b5b612f5382612939565b9050602081019050919050565b6000612f73612f6e84612f2f565b612d9c565b905082815260208101848484011115612f8f57612f8e612d37565b5b612f9a848285612de8565b509392505050565b600082601f830112612fb757612fb6612d32565b5b8135612fc7848260208601612f60565b91505092915050565b60008060008060808587031215612fea57612fe961282e565b5b6000612ff887828801612a7b565b945050602061300987828801612a7b565b935050604061301a878288016129c6565b925050606085013567ffffffffffffffff81111561303b5761303a612833565b5b61304787828801612fa2565b91505092959194509250565b6000806040838503121561306a5761306961282e565b5b600061307885828601612a7b565b925050602061308985828601612a7b565b9150509250929050565b7f4e487b7100000000000000000000000000000000000000000000000000000000600052602260045260246000fd5b600060028204905060018216806130da57607f821691505b6020821081036130ed576130ec613093565b5b50919050565b7f4552433732313a20617070726f76616c20746f2063757272656e74206f776e6560008201527f7200000000000000000000000000000000000000000000000000000000000000602082015250565b600061314f6021836128fe565b915061315a826130f3565b604082019050919050565b6000602082019050818103600083015261317e81613142565b9050919050565b7f4552433732313a20617070726f76652063616c6c6572206973206e6f7420746f60008201527f6b656e206f776e6572206f7220617070726f76656420666f7220616c6c000000602082015250565b60006131e1603d836128fe565b91506131ec82613185565b604082019050919050565b60006020820190508181036000830152613210816131d4565b9050919050565b7f4e487b7100000000000000000000000000000000000000000000000000000000600052601160045260246000fd5b6000613251826129a5565b915061325c836129a5565b925082820390508181111561327457613273613217565b5b92915050565b6000613285826129a5565b9150613290836129a5565b92508282019050808211156132a8576132a7613217565b5b92915050565b60006132b9826129a5565b91507fffffffffffffffffffffffffffffffffffffffffffffffffffffffffffffffff82036132eb576132ea613217565b5b600182019050919050565b7f4e487b7100000000000000000000000000000000000000000000000000000000600052603260045260246000fd5b7f4552433732313a2063616c6c6572206973206e6f7420746f6b656e206f776e6560008201527f72206f7220617070726f76656400000000000000000000000000000000000000602082015250565b6000613381602d836128fe565b915061338c82613325565b604082019050919050565b600060208201905081810360008301526133b081613374565b9050919050565b7f4552433732313a20696e76616c696420746f6b656e2049440000000000000000600082015250565b60006133ed6018836128fe565b91506133f8826133b7565b602082019050919050565b6000602082019050818103600083015261341c816133e0565b9050919050565b7f4552433732313a2061646472657373207a65726f206973206e6f74206120766160008201527f6c6964206f776e65720000000000000000000000000000000000000000000000602082015250565b600061347f6029836128fe565b915061348a82613423565b604082019050919050565b600060208201905081810360008301526134ae81613472565b9050919050565b600081905092915050565b60006134cb826128f3565b6134d581856134b5565b93506134e581856020860161290f565b80840191505092915050565b60006134fd82856134c0565b915061350982846134c0565b91508190509392505050565b7f4552433732313a207472616e736665722066726f6d20696e636f72726563742060008201527f6f776e6572000000000000000000000000000000000000000000000000000000602082015250565b60006135716025836128fe565b915061357c82613515565b604082019050919050565b600060208201905081810360008301526135a081613564565b9050919050565b7f4552433732313a207472616e7366657220746f20746865207a65726f2061646460008201527f7265737300000000000000000000000000000000000000000000000000000000602082015250565b60006136036024836128fe565b915061360e826135a7565b604082019050919050565b60006020820190508181036000830152613632816135f6565b9050919050565b7f436f756e7465723a2064656372656d656e74206f766572666c6f770000000000600082015250565b600061366f601b836128fe565b915061367a82613639565b602082019050919050565b6000602082019050818103600083015261369e81613662565b9050919050565b7f4552433732313a206d696e7420746f20746865207a65726f2061646472657373600082015250565b60006136db6020836128fe565b91506136e6826136a5565b602082019050919050565b6000602082019050818103600083015261370a816136ce565b9050919050565b7f4552433732313a20746f6b656e20616c7265616479206d696e74656400000000600082015250565b6000613747601c836128fe565b915061375282613711565b602082019050919050565b600060208201905081810360008301526137768161373a565b9050919050565b7f45524337323155524953746f726167653a2055524920736574206f66206e6f6e60008201527f6578697374656e7420746f6b656e000000000000000000000000000000000000602082015250565b60006137d9602e836128fe565b91506137e48261377d565b604082019050919050565b60006020820190508181036000830152613808816137cc565b9050919050565b60008190508160005260206000209050919050565b60006020601f8301049050919050565b600082821b905092915050565b6000600883026138717fffffffffffffffffffffffffffffffffffffffffffffffffffffffffffffffff82613834565b61387b8683613834565b95508019841693508086168417925050509392505050565b6000819050919050565b60006138b86138b36138ae846129a5565b613893565b6129a5565b9050919050565b6000819050919050565b6138d28361389d565b6138e66138de826138bf565b848454613841565b825550505050565b600090565b6138fb6138ee565b6139068184846138c9565b505050565b5b8181101561392a5761391f6000826138f3565b60018101905061390c565b5050565b601f82111561396f576139408161380f565b61394984613824565b81016020851015613958578190505b61396c61396485613824565b83018261390b565b50505b505050565b600082821c905092915050565b600061399260001984600802613974565b1980831691505092915050565b60006139ab8383613981565b9150826002028217905092915050565b6139c4826128f3565b67ffffffffffffffff8111156139dd576139dc612d3c565b5b6139e782546130c2565b6139f282828561392e565b600060209050601f831160018114613a255760008415613a13578287015190505b613a1d858261399f565b865550613a85565b601f198416613a338661380f565b60005b82811015613a5b57848901518255600182019150602085019450602081019050613a36565b86831015613a785784890151613a74601f891682613981565b8355505b6001600288020188555050505b505050505050565b613a9681612b0b565b82525050565b600060a082019050613ab16000830188612d08565b613abe6020830187613a8d565b613acb6040830186613a8d565b613ad86060830185612d08565b613ae560808301846128c9565b9695505050505050565b7f4552433732313a20617070726f766520746f2063616c6c657200000000000000600082015250565b6000613b256019836128fe565b9150613b3082613aef565b602082019050919050565b60006020820190508181036000830152613b5481613b18565b9050919050565b7f4552433732313a207472616e7366657220746f206e6f6e20455243373231526560008201527f63656976657220696d706c656d656e7465720000000000000000000000000000602082015250565b6000613bb76032836128fe565b9150613bc282613b5b565b604082019050919050565b60006020820190508181036000830152613be681613baa565b9050919050565b600081519050919050565b600082825260208201905092915050565b6000613c1482613bed565b613c1e8185613bf8565b9350613c2e81856020860161290f565b613c3781612939565b840191505092915050565b6000608082019050613c576000830187612a3a565b613c646020830186612a3a565b613c716040830185612d08565b8181036060830152613c838184613c09565b905095945050505050565b600081519050613c9d81612864565b92915050565b600060208284031215613cb957613cb861282e565b5b6000613cc784828501613c8e565b91505092915050565b7f4e487b7100000000000000000000000000000000000000000000000000000000600052601260045260246000fdfea26469706673582212204031b80edda3410fbc603b7be8b41d8c4350900f209a7797887425d41385e8d464736f6c63430008120033",
  "linkReferences": {},
  "deployedLinkReferences": {}
}